:020000040800F2
:1060000000100020416F00082DC3000831C30008B4
:106010001F69030835C300083DC300081F69030852
:106020001F6903081F6903081F6903081F69030824
:1060300041C30008EC0804081F6903081F6903082E
:10604000217400081F6903081F6903081F690308FA
:106050001F6903081F6903081F6903081F690308F4
:106060001F690308756D0008596603081F69030856
:106070001F6903081F6903081F6903081F690308D4
:106080001F6903081F6903081F6903081F690308C4
:106090001F6903080D7A00081F6903081F690308B8
:1060A0001F6903081F6903081F6903081F690308A4
:1060B0001F690308EDA301087DAE0108B3B803080A
:1060C000AFB8030821A60108BFB80308B7B8030892
:1060D00051AE0108BBB80308BDAE010829AF0108E5
:1060E0001F6903081F6903084DC400081F690308DE
:1060F000E17903081F6903081F6903081F69030882
:106100001F6903081F6903081F6903081F69030843
:106110001F6903081F6903081F6903081F69030833
:106120001F6903081F6903081F6903081F69030823
:106130001F6903081F6903081F6903081F69030813
:106140001F6903081F6903081F69030853820308B6
:10615000C59201081F6903085DB8030863B8030806
:106160001F6903081F6903081F6903081F690308E3
:10617000F0B5114A114C124E00F00105E3695F07BA
:1061800013D40DB9334213D103EA00078F4207D16C
:106190000B4A1A40002A0CBF00206FF00100F0BD2E
:1061A000013AEBD16FF00200F9E74FF0FF30F6E76C
:1061B0006FF00100F3E700BF8096980000000350E5
:1061C000020001000B4B70B5D96911F480310DD17B
:1061D00001244FF48072084E084DF46020462C6470
:1061E0001A61FFF7C5FF3464EC6070BD6FF0010009
:1061F000FBE700BF000003500010035000200350D5
:106200004FF4803238B50E4B0E4C9A66E56941F674
:10621000713315400122E3630B4B0021DA60022346
:10622000606121202361FFF7A3FF10B92120FFF750
:106230009FFF0122054BDA600DB10023E36338BDF7
:106240000090005000000350001003500020035045
:1062500070B5134C6061E3695B071ED40E4656F8B7
:10626000043B8D18A361AE420BD1042300212120F1
:106270002361FFF77DFF58B9BDE870402120FFF78B
:1062800077BF08210846FFF773FF10B1042323618D
:1062900070BD56F8043BA361E5E74FF0FF30F7E728
:1062A000000003502DE9F84315464FF48032184B97
:1062B00089469A6603F51C33DF690646174041F6A6
:1062C0007132DA63012203F58053DFF84C80DA6023
:1062D00055B9284601220F4BDA601FB10022A3F501
:1062E0000053DA63BDE8F88306F5005404EA0804B5
:1062F000A41BAC4228BF2C46494622463046FFF735
:10630000A7FF0028E6D12644A1442D1BE0E700BFEB
:0C631000009000500020035000E0FFFF50
:10632000013800D0FCE770472DE9F04F93B0CDE97C
:106330000A32DDE91C530E9353EC102BCDE9080112
:10634000104619468DED060B1E9E2FF0D3FE80B130
:10635000DDE906014FF0FF32C54B2FF0F3FE40B9E7
:10636000DDE906014FF0FF326FF480132FF0CCFE11
:1063700070B1DDE908019DED060B0E9B1E96CDE97F
:106380001C53DDE90A3213B0BDE8F04F00F088B9C4
:106390000022DDE9060100232FF0B6FE002800F000
:1063A0003381DDE906A303F1004BCBF30A5016F469
:1063B0008063A0F2FF3008BF06250F932FF0C8FBC3
:1063C0009BA3D3E900232FF02DFC9BA3D3E900234B
:1063D0002FF072FACBF31304894644F07F518046C4
:1063E0000022A44B504641F440112FF063FA94A3CD
:1063F000D3E900232FF016FC02460B4640464946DF
:106400002FF05AFA2FF0A8FE04462FF0A1FB8EA31E
:10641000D3E90023804689462FF004FC0022964BE6
:106420002FF04AFA2FF098FE89A3D3E900230746FC
:10643000494640462FF0F6FB8046384689462FF005
:1064400087FB85A3D3E900232FF0ECFB02460B4624
:10645000404649462FF02EFA02460B46CDE90C2362
:106460002FF0E0FBDDE90C238046894610461946F3
:106470002FF022FA0022CDE91001804B4046494618
:106480002FF0FAFC00227E4B2FF016FA02460B4644
:10649000404649462FF0F0FC00227A4B2FF00CFAD0
:1064A00002460B46404649462FF0E6FCDDE90C2348
:1064B0008046894600204FF080412FF0FBF90246CC
:1064C0000B46404649462FF0F7F902460B46DDE9F8
:1064D00010012FF0D1FC07F2FF3700226A4B2FF09A
:1064E000EBF900223B052FF09DFB52465B468046B0
:1064F00089462FF027FE002840F08980CDE90C89DD
:1065000004F16303C72B34BF0427052731051BD5CE
:1065100053A3D3E90023504659462FF009FE002823
:106520007FD051A3D3E90023504659462FF0ECFD0C
:10653000002876D00027A542C6BF2C1B04F1FF35EA
:1065400000253C4646F480660E9B9F422CBF4FF0D0
:106550000008A3EB070816F0020903D0002F18BFAC
:106560004FF000083CB1DDE90C23504659462FF0AE
:1065700083FC82468B46DDE90601002200232FF0D2
:10658000C3FD10B10BF100439B46DDE9080126F481
:106590000063CDE90183DDE90A324BEC10AB0095D5
:1065A00000F07EF802465FB3DDE9091316F0200F14
:1065B00000F10105089E0CBF65204520B047DDE9CC
:1065C00008010523002205930A23002CCDE902329D
:1065D00007F1FF374FEAD473B8BF64422A460193EC
:1065E00004970A9B009434F059F80246B9F1000F61
:1065F00006D00B9BC41A0B9B1A190E9BA34245D8BD
:10660000104613B0BDE8F08FDDE906ABCDE6002201
:10661000404649461A4B2FF02FFC013CCDE90C01B6
:106620006EE7002D90D00F9B002B8DD0013D8BE7A6
:10663000FB799F501344D33FB3C8608B288AC63F71
:1066400061436F63A787D23F71A379094F930A40D3
:106650001655B5BBB16B0240EF39FAFE422EE63F4C
:106660002D431CEBE2361A3F0000000080842E41CF
:10667000FFFFEF7F0000F83F0000E03F00002C40EC
:1066800000002440000018400000F03F2020DDE919
:106690000913089DA8470134ADE700BF00000000C2
:1066A0002DE9F04F5BEC10AB97B0CDE90501DDE9CA
:1066B0002057CDE90723504652465B465946229E55
:1066C0002FF018FD70B90323CDE902760193B04B8A
:1066D0000093DDE90501DDE9072333F0FFFE17B084
:1066E000BDE8F08F4FF0FF326FF4801350465946EB
:1066F0002FF00AFD28B10423CDE902760193A54BC2
:10670000E6E74FF0FF3250465946A34B2FF01AFDF3
:1067100068B1A24A06F00403002B08BF0322A04B75
:106720001CBF13460422CDE902760192D0E7504601
:1067300093A3D3E9002359462FF004FD38B992A35F
:10674000D3E90023504659462FF0DEFC68B1DDE95D
:106750000723DDE905014BEC10ABCDE9217620954F
:1067600017B0BDE8F04FFFF7DFBD00220023504611
:1067700059462FF0C9FC002800F09A805B4652462B
:10678000002000212FF096F8012382468B460993C2
:1067900016F4806400F08E80092D40F28E80002473
:1067A00030210EABA5F109020134202C03F8011BA6
:1067B000A5EB040901D09442F6D1594650462FF07A
:1067C000CBFC784B054603EBC90393ED007B8DEDC5
:1067D0000A7B2FF0BDF902460B46504659462FF072
:1067E00069F8DDE90A232FF01DFA02460B46CDE9D0
:1067F0000C232FF0D9FC80462FF09AF902460B4665
:10680000DDE90C012FF056F802460B46CDE90C23CA
:106810000022654B2FF096FC002851D008F10108AA
:1068200040462FF085F902460B46DDE90A012FF0BC
:1068300075FC10B14FF000080135B9F1000F50D1CF
:1068400028462FF085F902460B46504659462FF050
:1068500031F80022544B804689462FF055FC30B168
:10686000002240464946504B2FF06CFC10B1E8071F
:1068700000D501350A210EAB1A19202C0AD095FB40
:10688000F1F001FB1055303502F8015B013405468B
:106890000028F2D106F00302012A57D1002F55D06B
:1068A000099A12B916F00C0F00D0013F302245E0D2
:1068B00009906DE74FF006097FE7A94600247CE7C1
:1068C0000022DDE90C01384B2FF01EFC0028B4D16A
:1068D000B8F1000F02D018F0010FAED008F1010896
:1068E000ABE70A210EAB2344202C0ED0B8FBF1F00D
:1068F00001FB1082B8F1090F02F1300209F1FF39F2
:1069000004F1010403F8012B11D83021A1440EAA8F
:10691000202CAFD0A14504F101030AD11C4609F196
:1069200058030DEB03092E2309F8203CA2E780460B
:10693000DAE7A1541C46EBE71A550134A74205D902
:10694000202CF9D1CDE902760194C1E6202CF9D0B2
:10695000099A3AB12D2104F158026A4402F8201C28
:106960000134EFE7710704D504F158022B216A4482
:10697000F4E73207E6D504F1580220216A44EDE736
:106980000000000065CDCD410000000065CDCDC107
:106990002124040825240408FFFFEF7F182404089D
:1069A0001D240408302404080000E03F000000001B
:1069B00070B58EB02C22002103A839F038FF642373
:1069C0004FF002320893CDE905230B2301218DF806
:1069D0003430534B8DF810101B88D80700F1988085
:1069E000084618F0F7FA0A224E4B4F491A704FF436
:1069F00028734E48ADF8123014F054FB4C4C206014
:106A000020B94FF416714B4805F08AFB0521206828
:106A100034F0C8FF20B14FF41A71464805F080FBEE
:106A2000206800F0B9F9444B2068196834F0D4FBB1
:106A30000C2519F0EDF96843099019F0E9F968435C
:106A40000DEB0501079020680EF018FB20B140F215
:106A50007D21384805F064FB25681BF08FFD00227E
:106A60000146284634F042FC20B140F27F213148F3
:106A700005F056FB40F20353304D314E2B80052379
:106A800096F90000AB707F2801D118F007FC33782D
:106A9000EB7019F0BDF900EB80008000A88019F0C0
:106AA000B7F90023C0004FF0FF31E880AB604FF032
:106AB000FF3019A3D3E9002318F04EFC21492068C8
:106AC00035F01FF8206802A934F0EFFB20B14FF435
:106AD0002E71184805F024FB042220680DEB0201FA
:106AE00034F068FB042804D040F2BB21114805F0C3
:106AF00017FB01A9012032F0E7FC05F05BFC012047
:106B000019F02EFC30F005F919F062FC18F0E6FAE5
:106B10000EB070BDAFF300800A0020FF42030000FA
:106B200016450020F1470020FDEF01085C4E0020D3
:106B30008C36002018650408984C00208036002010
:106B4000DF510020A9F101080348044B834202D021
:106B5000034B03B118477047C85D0020C85D002093
:106B600000000000064B0749C91A891048BF0131CF
:106B7000491003D0044B0BB101481847704700BFC0
:106B8000C85D0020C85D00200000000010B5064C64
:106B9000237843B9FFF7D8FF044B13B10448AFF390
:106BA00000800123237010BD9645002000000000E6
:106BB0008468040808B5054B1BB105490548AFF3C7
:106BC0000080BDE80840FFF7CDBF00BF0000000017
:106BD0005016002084680408A3F5803A704700BF6F
:106BE000174B002B08BF134B9D46FFF7F5FF002105
:106BF0008B460F461348144A121A39F018FE0E4BF2
:106C0000002B00D098470D4B002B00D09847002058
:106C1000002104000D000D48002802D00C48AFF3FD
:106C200000802FF08BFC200029002FF0AEFC2FF00D
:106C30006BFC00BF00000800000000000000000026
:106C400000100020A01000207C4800200000000060
:106C50000000000030B5234D95B00DAC0FCD0FC432
:106C600095E80700032384E807008DF84D302923B9
:106C70001D4A0021CDE902230523CDE904118DF839
:106C8000113006230E220DF1260006918DF81330E7
:106C900039F0CDFD4FF48021144B0DAACDE9071337
:106CA00009238DF824300A238DF82530104B07A9CD
:106CB0000A9320230B9301238DF831300D4B0E489E
:106CC000009302AB04F08AFC04469DF832304FF486
:106CD000E130002B0CBF032100212FF011FE2046D4
:106CE00015B030BDB408040800C0055024C00550DC
:106CF0009745002068160020BC160020831E012B3B
:106D000010B512D8012922D8114B04221B6C052181
:106D10000020C3F3401302F061F90E4B1B681868A2
:106D2000A8B1BDE81040436A18478B1E012B0CD850
:106D300001280CD8BDE810400022054B05211B6C32
:106D40001046C3F3401302F049B90129E5D910BD3B
:106D500000C003501C4C002008B50449044806F04C
:106D60003FFEBDE80840FFF775BF00BF204C002084
:106D7000E0160020014831F030B800BFBC160020FA
:106D8000014B1A6A18681047BC160020014B18788E
:106D9000704700BFB745002008B50EF09DF90022EE
:106DA000014B1A7008BD00BFB745002008B5044864
:106DB00030F0ACFD2FF0F1FBBDE8084000F01CB84E
:106DC00068100408014830F0A1BD00BF6810040835
:106DD00007B508202FF02CFE02238DF80030054B5C
:106DE000684601932FF050FD082003B05DF804EBD6
:106DF0002FF029BE006A18102DE9F043424D89B0EA
:106E000001AC0FCD0FC495E8070084E8070001240A
:106E10003E4F3F4830F07AFD3E4E384630F076FD2A
:106E20003D4B304601A903938DF8124002F01AFB46
:106E3000234604220321022002F0D0F80221224638
:106E40000846002302F0CAF8234621460422022005
:106E500002F0C4F8042200212346022002F0BEF80A
:106E60002E4D2F4B05F50059C5F834374FF002135E
:106E7000C5F8303703F58033C5F838371C234FF495
:106E80004870C5F8203707F0E1FF05F58058142059
:106E9000C9F8A04007F0DAFF2320C8F8A04007F0A7
:106EA000D5FFB9213046C9F8A0402FF0B3FE00232A
:106EB00003211A460220C8F8A04002F08FF80023F0
:106EC00002211A46084602F089F82346214600228C
:106ED000022002F083F8002223461146022002F02D
:106EE0007DF8304602F03CFA00233846C5F83437C6
:106EF000C5F83037C5F83837C5F8203730F009FD08
:106F000009B0BDE8F08300BFD00804085C10040895
:106F10006810040800C0055000127A0000C0035039
:106F2000020001000348044A0449121A92102FF08B
:106F3000F7BC00BF706100081C6300087C4800209B
:106F400008B500F02FF8FFF7EDFF124B12498B4206
:106F500012D30020114B12498B4218D3FFF740FE89
:106F6000186850F82240586840F82240013298686A
:106F70008242F5D30C33EAE70022F8E71C6844F8B4
:106F8000220001325C68A242F8D30833E4E7002211
:106F9000F8E700BF8C68040898680408986804083B
:106FA000986804084FF48041124B134A70B59A60F8
:106FB000D3F88820114D42F47002C3F88820104A9B
:106FC00005F5005491664FF0FF3222660D4A626665
:106FD0000222C3F8D020BFF34F8FBFF36F8F4FF45F
:106FE0004036002004F0E4F80020E66004F0D2F817
:106FF0002E6170BD00ED00E00060000800800044DC
:1070000000900050F7FF3700014B1868704700BF31
:107010002C4C0020014B1860704700BF2C4C002006
:10702000084B1B6F03F00703022B04D0032B05D082
:10703000012B05D0FEE7044B18687047034BFBE7B4
:1070400003487047008000502C4C0020344C002036
:10705000002D310108B5FFF7E3FF054B1B6FC3F3AC
:1070600003330133B0FBF3F0024B186008BD00BFDF
:1070700000800050284C00200048704700B4C40431
:10708000014B1868704700BF344C0020054B186056
:10709000054B1B6F03F00703032B01D1FFF7DABF8A
:1070A000704700BF344C00200080005000487047FB
:1070B000002D31014FF0B4439868C0F304400C2810
:1070C0000AD8DFE800F00B090909090907211909A5
:1070D0001B1D1F000F487047002070479B6803F07E
:1070E0004073B3F1807F11D0B3F1007F10D00A4A12
:1070F000002B08BF10467047084870470848704783
:107100000848704708487047084870470848704763
:1071100008487047405DC60000093D00C0EA2101F3
:1071200080BA8C010048E801005A62020024F40091
:1071300080841E0040420F00014B1868704700BF5A
:10714000304C00204FF000639B6A03F17842B2F5A7
:10715000C04F03D21968064A914203D0002303703E
:1071600083607047012202709A689B694260F7E76A
:1071700007B0CD5E73B54F4B04461A781AB10222A0
:107180001A7002B070BDCDE900220028F9D00126A6
:107190001E702FF03CFC484D484B186010F02AFF41
:1071A0002B785BB900F06CFC40B945480823454A90
:1071B000454900680DF0CEFB00B92E70434B5A6E66
:1071C00062619B6E424AA3614FF480439366414BD8
:1071D0005968E16140499960196E2160596E61609A
:1071E000D3F87011A160196CE160596C21613B49C1
:1071F000086C1864496C5964012151661B6E9C042B
:1072000041D5374AD368D807FCD4364B1A68531C8B
:107210003ED04FF480139340334A13664FF400730B
:107220000426314C266623662FF0B6FB01300DD0C4
:107230002FF0B2FB40F20113984207D04FF40053F5
:1072400023664FF480432366C4F870610823264CFC
:10725000684623664FF4805323664FF0006323662D
:107260004FF4002301A963662FF07AFB009B23668D
:10727000019B63662B78002B83D0124B1A68226621
:107280005B6863667DE7194AD368D907FCD4BCE71D
:10729000174B1B78002BC1D14FF400720C4B5A6670
:1072A00003F5A6235B68002BB8D14FF480120E4B78
:1072B0001A66B3E7B9450020BA4500200817002038
:1072C0005C4C00200C17002000710800008000506A
:1072D000009000500080004455CEAC0000C0005427
:1072E00000000440384C002000900044000004508E
:1072F000B845002070B5224D04462E78012E02D0EC
:1073000001232B7070BD0028FCD02FF045FB01300D
:107310000BD02FF041FB40F20113984205D0194BDE
:10732000194A5E66D368DE07FCD42268174B1A66DA
:1073300062685A66A268C3F87021E2681A6422691A
:107340005A64E269D00744BF00229A60104B1A6861
:10735000013207D10F4A127822B90F494968C9078B
:1073600048BF1A6062690D4B5A66A2699A6610F0AE
:1073700049FE0B4B18682FF050FB0023C1E700BFFC
:10738000B945002000900040000004400080004407
:10739000384C0020B845002000C005500080005047
:1073A00008170020F8B54FF00066B36A03F1784281
:1073B000B2F5C04F26D21A68144B9A4222D1144D0E
:1073C0002C7814F0FD0402D000242046F8BD4FF4C0
:1073D00080371048FFF7CEFE204603F0E9FE0E4B43
:1073E0002046DF6003F0D6FE0C4B1F61B36ADB69F9
:1073F000984704460748FFF77DFF002CE5D101239D
:107400002B70E1E74FF48174DFE700BF07B0CD5E7A
:10741000B8450020E816002000A000440090004479
:1074200013B5214B1B7803B9FEE700231F4CCDE9B0
:1074300000336A4608231E4920680DF08BFA00BB12
:107440001C4AD2F84031D2F840211F2B4FF00103E3
:1074500012D9203A9340019A1A43019208236A46AE
:10746000134920680DF02CFA4FF00053124A1A60AD
:1074700003F06CFE02B010BD9340009A1A430092D4
:10748000ECE70E4B9842EFD10A4AD2F84031D2F8DD
:1074900040211F2B4FF0010385BF203A93409340BA
:1074A000019398BF0093D9E7B94500205C4C0020B8
:1074B00000710800008000440B020FF00BE000F0A8
:1074C000034B5868C0F30800003818BF012070470C
:1074D00000ED00E013B500242948019430F016FABD
:1074E000012304220321204601F078FD20462FF0DD
:1074F0004EFB0122234B0520C3F8442401A930F0A0
:1075000000FA002839D1204BD3F8F02042F00102D4
:10751000C3F8F020D3F8FC2042F08072C3F8FC20BE
:107520001A4AA3F55D431A60019B194A03F5D52356
:1075300003F2FC43B3FBF2F3164A013B136102234F
:10754000C2F8F0304FF48073C2F804334FF0604358
:10755000114AC3F8B02F114AC3F8802ED3F8002E79
:1075600042F48072C3F8002EFF2283F82020D3F863
:10757000002E22F48072C3F8002E02B010BD00BFAE
:107580006810040800D0035000ED00E0FF03004045
:10759000F8590D00000004E055CEACC5090001000B
:1075A0004FF06043D3F8802E30B5D20715D50124B3
:1075B0000B4D8440D5F8FC2042F08072C5F8FC20C9
:1075C000D3F8002E2243C3F8002E53F82020002ABF
:1075D000F0D003F82010002030BD1120FCE700BFE0
:1075E00000ED00E02DE9F04F9A46564B85B01B7830
:1075F00006460F461546DDF83C909DF844B0DDF890
:107600005080002B00F09780072A00F296800E9B96
:10761000002B00F09280B9F1000F00F08E80129BD9
:10762000B3F5006F00F38980012803D1109B002B74
:1076300000F08380444B03EB05131B7B002B7ED0B3
:10764000424C10220021684639F0F1F804EB451451
:107650001022A7BB3946204639F0E9F843F210035F
:107660006380BBF1000F03D1E37843F00303E370C1
:10767000364A0E9B02EB451CCCE90193129B690133
:10768000581E9DF84C30C0F30A0003F003039B061C
:1076900043EA001E53582E48012E00EA03004EEA2A
:1076A0000003CDF800A0535017D0B8F1000F2ED131
:1076B0009CF8023068F304138CF8023027E00021B4
:1076C000204639F0B4F84FF444736380BBF1000FE7
:1076D000CED1E37843F03003C9E713230CF1100E49
:1076E000CCF80C309CE80F008EE80F006FF003011F
:1076F000DCF81C20109B61F39F02012FCCF81C20AA
:10770000CCF8143003D1CCF81890CCF80430002712
:107710000D4A290102EB051342F80180159A28460B
:107720005A60694622469F605E7301F0EBFC384662
:1077300005B0BDE8F08F0748FAE70748F8E70748C3
:10774000F6E700BFBB4500201418002014170020E6
:107750000F80FFF3028000F0018000F0078000F04E
:1077600038B5124B05461B78DBB1E0B12FF04FF96D
:107770000F4A00231146147B54B92B6001251A01CE
:1077800001EB03131D738C502FF047F9204638BDD1
:107790000133082B02F11002EDD12FF03EF905481C
:1077A000F5E70548F3E70548F1E700BFBB450020D2
:1077B00014180020048000F0028000F0018000F026
:1077C00038B52FF024F9002305460B4A147B6CB919
:1077D0000133082B02F11002F8D101F03FFC074BF6
:1077E00028461C702FF019F9204603E028462FF098
:1077F00014F9034838BD00BF14180020BB45002011
:10780000058000F00D4B10B51B78044693B1072896
:1078100012D82FF0FCF80A4B03EB04131A7B2AB1A1
:1078200000241C732FF0F9F8204610BD2FF0F5F856
:107830000448FAE70448F8E70448F6E7BB450020A7
:1078400014180020068000F0028000F0018000F093
:10785000154B13B51868002301908DF804302FF0F4
:10786000D6F8124B1C7824B12FF0D7F8104802B08C
:1078700010BD01221A702FF0D0F80E4B01A81C7316
:107880001C7783F82C4083F83C4083F84C4083F805
:107890005C4083F86C4083F87C4008238DF8073007
:1078A00001F000FC2046E2E73C090408BB4500204B
:1078B000038000F0141800200A4A08B512785AB163
:1078C00007280BD8084A02EB00131B7B43B10021A9
:1078D00001F0DAFB002008BD0448FCE70448FAE7A1
:1078E0000448F8E7BB45002014180020028000F08F
:1078F000018000F0078000F00A4A08B512785AB1FA
:1079000007280BD8084A02EB00131B7B43B1012167
:1079100001F0BAFB002008BD0448FCE70448FAE780
:107920000448F8E7BB45002014180020028000F04E
:10793000018000F0078000F00A4A08B5127852B1C1
:1079400007280AD8084A02EB00131B7B3BB101F061
:1079500025FC002008BD0548FCE70548FAE7054876
:10796000F8E700BFBB45002014180020028000F09B
:10797000018000F0078000F00D4B1B7893B10728C1
:1079800012D889B10B4B03EB00131B7B73B10A4B6D
:107990001A6D01238340134214BF012300230020EA
:1079A0000B70704705487047054870470548704799
:1079B000BB4500201418002000000450028000F095
:1079C000018000F0078000F00B4A10B512780C46D9
:1079D00062B107280CD859B1084A02EB00131B7B8F
:1079E00043B101F0EDFB2070002010BD0448FCE71E
:1079F0000448FAE70448F8E7BB45002014180020C3
:107A0000028000F0018000F0078000F0184B2DE9A3
:107A1000F0411F6D5B6D1F4000D5FEE7012600257C
:107A2000144CDFF85880374218D02368C8F85060EB
:107A3000A3B1A168284601316268A1609847637BC1
:107A4000012B0BD150B90C4B03EB45131A7B60F3A0
:107A500041021A731A7F60F341021A770135082D2B
:107A60004FEA460604F11004DDD1BDE8F08100BF05
:107A700000000450141800201417002000200450A7
:107A8000024B1968024B18680CF040BE3C4C0020B9
:107A90005C4C002070B59400224605460E4638F036
:107AA000FBFE431C0AD058B922463146284638F01E
:107AB00094FE0028034808BF002070BD0248FCE780
:107AC0000248FAE710E000F021E000F024E000F0C6
:107AD00010B5044638F0E4FE431C10D088B901F01C
:107AE00005FC234620F003002044984201D10020E9
:107AF00010BD53F8042B0132F7D00348F8E70348D0
:107B0000F6E70348F4E700BF0EE000F021E000F0E4
:107B100024E000F008B52EF06FFF014B186008BD9F
:107B2000841F0020014B18682EF06ABF841F0020BC
:107B3000044BD3F88420D206FBD4D3F88400C0F3DE
:107B400081107047004000502E4B98424AD022D8F6
:107B50002D4B984240D014D82C4B984239D00AD89B
:107B60002B4B984232D02B4B98422FD02A4B984225
:107B70002CD000207047294B9842FAD1284B186F1F
:107B80007047284B98422AD0274B9842F1D1244B7A
:107B9000D3F880007047254B98422BD009D8244B4E
:107BA000984223D0234B9842E3D11D4BD3F88C004D
:107BB0007047214B984221D003F5740303F510530D
:107BC0009842D6D1164BD3F898007047144B986D55
:107BD0007047134B586E7047114B586F7047104BDE
:107BE000986F70470E4BD3F8840070470C4BD3F856
:107BF000880070470A4BD3F890007047084BD3F8C1
:107C0000940070470048E8010024F400C0CF6A00E7
:107C100080841E0000093D0040420F00405DC60008
:107C20000080E00FC0EA210180BA8C01007E56037B
:107C300080D54302006CDC020090D00338B5104BB5
:107C40000546D3F880300C4603F00303022B0BD01B
:107C5000032B0DD0012B0FD1FFF7E2F90E2305B155
:107C6000286004B1236038BDFFF724FA0723F6E744
:107C7000FFF7CAF90623F2E700231846EFE700BF33
:107C80000080005038B5184B0546D3F820010C464B
:107C900000F00700062823D8DFE800F0040A0E16DB
:107CA000121A1E00012305B1286004B1236038BDFB
:107CB000FFF7AAF90523F6E7FFF7E2F90323F2E756
:107CC000FFF7F8F90723EEE7FFF7F0F90223EAE7F9
:107CD000FFF79AF90623E6E7FFF7D2F90423E2E774
:107CE00000231846DFE700BF0080005038B5174B6F
:107CF0000546D3F828310C4603F00703013B052B5A
:107D000020D8DFE803F003131B0F0B17FFF77CF9F4
:107D1000052305B1286004B1236038BDFFF774F96D
:107D20000623F6E7FFF7C6F90723F2E7FFF7A8F9FE
:107D30000323EEE7FFF7A4F90423EAE7FFF7B6F918
:107D40000223E6E700231846E3E700BF0080005067
:107D500073B50D460021114B0191D3F880410646C1
:107D600004F00304022C13D0032C0CD0012C13D1EB
:107D700001A8FFF787FF10240EB1019B336005B106
:107D80002C6002B070BDFFF795F907240190F3E76E
:107D9000FFF78CF90190EFE70C46EDE7008000500B
:107DA000002337B50193164B0546D3F820320C4615
:107DB00003F00703042B21D8DFE803F0030B1116AF
:107DC0001B0001230DB1019A2A6004B1236003B0A6
:107DD00030BD002101A8FFF789FF1223F2E7FFF76A
:107DE00069F907230190EDE72EF0A7FD0A23019022
:107DF000E8E7FFF7A1F909230190E3E70023E1E7B2
:107E00000080005038B5104B0546D3F840310C4681
:107E100003F00303022B0BD0032B0DD0012B0FD14A
:107E20002EF08BFD0A2305B1286004B1236038BD14
:107E3000FFF782F90923F6E72EF082FD0C23F2E723
:107E400001230020EFE700BF00800050002337B57A
:107E50000193164B0546D3F860320C4603F0070336
:107E6000013B032B1FD8DFE803F0020E1914002199
:107E700001A8FFF707FF10230DB1019A2A6004B192
:107E8000236003B030BD002101A8FFF7BBFF112321
:107E9000F2E7FFF70FF907230190EDE7FFF706F987
:107EA00002230190E8E70023E6E700BF00800050CE
:107EB000002337B50193164B0546D3F894320C4690
:107EC00003F00703013B032B1FD8DFE803F0020E8A
:107ED0001914002101A8FFF7D5FE10230DB1019A56
:107EE0002A6004B1236003B030BD002101A8FFF770
:107EF00089FF1123F2E7FFF7DDF807230190EDE793
:107F0000FFF7D4F802230190E8E70023E6E700BF7B
:107F10000080005038B5144B0546D3F800020C46DB
:107F200000F0070004281BD8DFE800F003090D115A
:107F30001500012305B1286004B1236038BD2EF07F
:107F4000FCFC0A23F6E7FFF7F7F80923F2E72EF027
:107F5000F7FC0C23EEE7FFF77DF80F23800AE9E733
:107F600000231846E6E700BF0080005038B5144BE8
:107F70000546D3F808020C4600F0070004281BD879
:107F8000DFE800F003090D111500012305B1286099
:107F900004B1236038BD2EF0D0FC0A23F6E7FFF7CA
:107FA000CBF80923F2E72EF0CBFC0C23EEE7FFF72A
:107FB00051F80F23800AE9E700231846E6E700BFDF
:107FC0000080005038B5104B0546D3F840320C46BF
:107FD00003F00303022B0BD0032B0DD0012B0FD189
:107FE0002EF0ABFC0A2305B1286004B1236038BD34
:107FF000FFF7A2F80923F6E72EF0A2FC0C23F2E724
:1080000001230020EFE700BF0080005038B5104B7F
:108010000546D3F860310C4603F00303022B0BD066
:10802000032B0DD0012B0FD12EF087FC0A2305B1B5
:10803000286004B1236038BDFFF77EF80923F6E716
:108040002EF07EFC0C23F2E701230020EFE700BFB7
:1080500000800050B0F5207F1FD009D8B0F5007F18
:1080600015D003D868B1B0F5C07F0AD000200CE06D
:10807000B0F5607FFAD10B4BD3F88000C0F301104C
:1080800003E0084B186FC0F3033001307047054B15
:10809000D3F89000C0F30460F7E7024B186FC0F309
:1080A0008020F2E70080005002464FF48030104BF1
:1080B00010B598660020FFF7CDFF504341F67132AE
:1080C0000C4BDC69DA635A6804F4803422F4401201
:1080D00059B90949884294BF002001200005024394
:1080E0005A600CB10022DA6310BD0449F2E700BF08
:1080F0000090005000000350005A6202002D310130
:10810000430905D0012B0CD0022B084B18BF0023CC
:1081100000F01F0039B103F58053012282401A603C
:108120007047034BF4E703F50053F6E7688000500F
:10813000648000501FB5002180280446CDE900115D
:1081400000F0A58035D85E2846D85E2844D8DFE800
:1081500000F0A24343434343434343434343434326
:1081600043434343434343434343434343434343DF
:108170004343A2AAA2AABABABABABAAAC44DDA7139
:108180004DAAAAAA4343434343434343AAAAAA7915
:10819000E4AA43434343434343434343434343BA30
:1081A000A2A2A2DF4D4DE9885EBF434343434399FA
:1081B000A200B0F5B06F00F090802DD8B0F5207F10
:1081C00071D00CD8B0F5C07F65D0B0F5007F65D018
:1081D000B0F5807F00F08680009804B010BDB0F547
:1081E000607F6BD00DD8B0F5407FF5D1FEF732FF40
:1081F00002464FF42070FFF72DFFB2FBF0F2520859
:108200005AE0B0F5806F5ED0B0F5A06FE4D10021E8
:108210006846FFF7C5FDDFE7B0F5106F78D016D8D8
:10822000B0F5E06F79D00AD8B0F5C06F6BD0B0F57B
:10823000D06FD1D100216846FFF76CFECCE7B0F5D6
:10824000F06FC9D100216846FFF7E0FEC4E7B0F542
:10825000406F3DD013D8B0F5206F63D0B0F5286FD4
:10826000BAD10021324B0391D3F8703203F00303EB
:10827000012B02D103A8FFF7C5FD039B3CE0B0F53D
:10828000486FA9D100216846FFF712FEA4E7FEF768
:10829000C7FE0090A0E7FEF7DDFEFAE7FEF7C0FE9E
:1082A0000246204604E0FEF7D5FE02464FF4207059
:1082B000FFF7D0FEB2FBF0F200928DE701A8FFF7C6
:1082C000BDFC019AEDE700216846FFF7DBFC83E780
:1082D00000216846FFF70AFD7EE700216846FFF7A8
:1082E00037FD79E74FF0E02302911B695B0705D565
:1082F000FEF7B0FE0290029B00936DE703A902A86F
:10830000FFF780FDF7E700216846FFF77BFD63E795
:1083100000216846FFF72AFE5EE700216846FFF766
:1083200051FE59E700216846FFF790FD54E700BF72
:108330000080005008B58020FFF7FCFE034B9842F8
:108340009EBF4FF48032024B1A6708BD005A62028A
:1083500000A000501FB503460020B3F5807F0190B8
:1083600000F0C18064D85D2B55D84C2B07D82D2B3D
:1083700048D8232B2CD8019805B05DF804FB4D3B61
:10838000102BF8D801A252F823F000BFDD840008BA
:1083900077830008778300087783000893840008B8
:1083A000778300087783000861850008B18400089E
:1083B00057840008578500087783000877830008F2
:1083C0007783000877830008778300086B850008AF
:1083D000243B092BCFD801A252F823F0DD840008FA
:1083E000DD840008DD840008DD840008DD840008E9
:1083F00077830008D384000877830008738400081B
:10840000138500083D2B7FD03E2BB4D1002001A95D
:10841000FFF7D8FDAFE7802BADD1594B1B6F03F0B1
:108420000703013B032BA6D8DFE803F0514E858DEF
:10843000B3F5F06F68D021D8B3F5B06F49D00FD83D
:10844000B3F5607F00F0838095D3B3F5806F45D09E
:10845000B3F5A06F8FD1002001A9FFF7A1FC8AE737
:10846000B3F5D06F55D0B3F5E06FCFD0B3F5C06F93
:1084700081D1002001A9FFF7C5FC7CE7B3F5206F8F
:108480006ED00BD8B3F5086F48D0B3F5106F7FF4FA
:1084900072AF002001A9FFF769FD6CE7B3F5406FEB
:1084A00059D0B3F5486F60D0B3F5286F7FF463AF50
:1084B000334BD3F8703203F00303012B5AD0022B55
:1084C0000CBF1523002300E00523019353E702238B
:1084D000FBE7002001A9FFF73BFC4CE7002001A9C6
:1084E000FFF7D0FB47E74FF0E02302901B695B07E3
:1084F00005D5FEF7AFFD0D230393039BE5E703A925
:1085000002A8FFF77FFCF8E7002001A9FFF77EFD36
:1085100031E7002001A9FFF7FDFC2CE7184BD3F849
:10852000003103F00303022B07D0032B09D0012BEA
:108530000BD1FEF7A5FD0323C7E7FEF7FDFD0923D9
:10854000C3E72EF0F8F90823BFE70123BDE701A92F
:10855000FFF774FB0FE7002001A9FFF7C7FB0AE74D
:10856000002001A9FFF772FC05E7002001A9FFF731
:108570009FFC00E7002103A8FFF744FC1123A4E7B8
:10858000008000504FF48032074B0849586E03F5C5
:1085900080535A664B6A23F001034B62C3035CBFEE
:1085A000034B5A66704700BF0080005000C0075060
:1085B00000A0005038B504468020FFF7CBFE03280A
:1085C00000F083804FF48012524B4FF0A0615A6646
:1085D00045F60E02504BC3F88020504A91624FF48A
:1085E000803102F5805291629A6DD203FCD4996D6C
:1085F00011F08041FBD1D4E90002120542EA006289
:10860000E07B0243207B42EA0042607B42EA003288
:10861000A07B42EA80121A619869D4E904521206DA
:1086200042EA856200F000400243A07EE57E0243FC
:10863000207E42EA0042607E42EA00229A611A6A83
:10864000E06922F00F0242EA8502354D00283DD153
:108650001A6294F82420996A94F82000D2002940E4
:1086600042EA40120A4394F8211042EA011242F40D
:1086700080329A622B49284A936D31EA0303FBD179
:108680004FF08071254881621369A56823F4700357
:1086900043EA055313614FF00043836194F822309D
:1086A0000BB9214B996294F823303BB94FF48032D7
:1086B0001D4B9A62184A936D5B00FCD494F82530E8
:1086C0001BB1154B194AC3F8802038BD024342F054
:1086D000080202281A6208D119614FF40852996100
:1086E00013484FF47F412EF005FA0B4994F82230DD
:1086F0008A6A94F820001B062A4043EA4013134379
:1087000094F8242043EAC20394F8232043EA024366
:108710008B62D3E7009000500040005A0050005A8E
:10872000C7FFFEFE030001000060005AF1A7FFFF33
:108730003440005A70B5194CFF28A66A2BD8A36D97
:108740004FF0807113F4803F18BF4FF48032144B08
:1087500018BF9A629962134AA36992F9005023F4F0
:108760007F03054423F47F4343EA002385F3080590
:1087700043EA0543A36132460B482EF0BBF9A36DD3
:10878000DB0301D4002070BD32464FF4803106482F
:108790002EF0B0F9F6E72120F5E700BF0040005ABF
:1087A0000050005AAA5100202840005A70B5104CC1
:1087B0004FF08071A66AA36D0E4813F4803F18BF76
:1087C0004FF480320C4B18BF9A6299623246A56909
:1087D0002EF090F9A36DC5F30725DB0305D53246CE
:1087E0004FF4803103482EF085F9284670BD00BF54
:1087F0000040005A2840005A0050005A014B93F99B
:1088000000007047AA5100204FF4803311481249EC
:10881000826A8B62836D03F00303032BFAD14FF05E
:1088200080730E488B620B4B996D30EA0101FBD1CE
:10883000012009490865996D8907FCD4054B996D9C
:108840008807FCD5996D8907FCD5054905482EF0A8
:1088500051B900BF0040005A0050005A0300010007
:10886000000001012840005AF0B5D0E901434FF45F
:1088700000061A4A4178057856664FF4D156022709
:1088800002F5B8325662164E4F2977604FF0010755
:1088900028BF4F2106F5805677601669F603FCD491
:1088A00041EA052151611B01417B43EA04230B434B
:1088B000017B43EA41039360C37B817B1B0143EA55
:1088C0004113417C0B43017C43EA41035360837CA9
:1088D00013B16FF4D1535362F0BD00BF009000504C
:1088E00000100250014B1880704700BF6A510020F1
:1088F000014B1880704700BF685100204FF4800280
:1089000008B5184B5A660223174A5360936813F44C
:108910008033FBD1012822D1FEF7B2FB134B9842E2
:1089200015D003F5122303F5F863984213D0104BCA
:1089300000EB8002400AB3FBF0F3520A0A49CA6214
:108940000B6301234B620022074B5A6008BD45F6BA
:108950007A13084AF2E745F61A03074AEEE753622C
:10896000F1E700BF009000500040025000F04902C3
:1089700064666666D8B80500BBCF0500B0F5207FF9
:1089800010B50C465DD008D8B0F5007F4ED003D8A6
:10899000C0B1B0F5C07F15D010BDB0F5607FFBD180
:1089A0002C4B4C1ED3F8FC202B4912F0807F4FEA51
:1089B000041427D1D1F8803023F030032343C1F8C9
:1089C0008030E9E72EF0A5F82EF0B1F84FF48031B1
:1089D000224B214A1967136F013C23F4704343EA89
:1089E00004331367FEF736FB0446FFF7A1F8C0F126
:1089F000020120462EF095F800F042F8BDE8104044
:108A0000FFF798BCD3F8FC2022F08072C3F8FC205A
:108A1000D1F8802022F030022243C1F88020D3F820
:108A2000FC2042F08072C3F8FC20B5E70A4A4C1ED5
:108A3000D2F8903023F0F85343EA0463C2F8903040
:108A4000AAE7054A4C1E136F23F4806343EA84238C
:108A50001367A1E700ED00E0008000500090005097
:108A600008B50121022000F06DF92EF052F82EF029
:108A70005EF84FF48032014B1A6708BD0090005039
:108A800008B54FF4C070FFF755FBBDE80840044936
:108A9000884294BF012102214FF42070FFF76EBF7E
:108AA00080F0FA024FF4C02270B50546FFF74CF88B
:108AB000314B04465A6603F598335A68012A04D1AB
:108AC0002E494A605A689207FCD48020FFF742FC86
:108AD000052807D12EF01DF82EF029F84FF480322A
:108AE000254B1A67264B24F040749D4230D0254B0D
:108AF0009D4230D0FEF788FA8542064603D901210F
:108B0000284600F05FF9204BDA6812F0060FFBD11F
:108B100099689C609A68624012F4F81F1ED128463A
:108B2000FEF778FA8020FFF715FC05280DD1FEF737
:108B300091FA0446FEF7FCFFC0F1020120462DF039
:108B4000F0FFFFF79DFFFFF7F5FBAE420CD270BDC3
:108B500044F00074CEE744F08074CBE78020996045
:108B6000FFF7F8FB052805D0BDE870400121002083
:108B700000F028B93546DAE70090005000E00150D7
:108B800040420F0080841E0000000150304B314AEB
:108B9000984251D020D8A3F5B703A3F55863984263
:108BA00046D00DD82C4B984231D02C4B984239D01E
:108BB0002B4B4FF4002198421DD00023516622E038
:108BC000284B4FF400219842F7D1274BD3F8BC3003
:108BD000516623F0407316E0244B984230D0244B6A
:108BE000984231D0234B4FF400219842E5D11E4BDF
:108BF000D3F8C830ECE71C4BD3F8A030516623F013
:108C0000407343F000734FF0B442936070474FF4E9
:108C10000021154BD3F8A030516623F0407343F088
:108C20008073F0E7104BD3F8A0304FF40021CFE76A
:108C30000D4BD3F8B830F8E70B4BD3F8C030F4E75E
:108C4000094BD3F8CC30F0E7074BD3F8D030ECE742
:108C5000C0EA21010090005080841E0000093D0000
:108C600040420F000024F4000080E00F0048E801BB
:108C7000005A620280BA8C01024A536B0342FCD153
:108C8000704700BF00400950044A4178536F23F4F5
:108C9000407343EA01235367704700BF0040005010
:108CA0000E4A10B51369044643F00403136105F03E
:108CB000E3F82DF058FF0A4B5B6E5B0142BF094B96
:108CC000094AC3F8202430BF2DF04EFF05F00EF9FD
:108CD0001CB9BDE81040FEF7BDB910BD00ED00E0C5
:108CE0000080005000E003500000FF0F0C4A10B558
:108CF0001369044643F0040313610A4B5B6E5B0186
:108D000042BF094B094AC3F8202405F0B5F830BF2B
:108D100005F0ECF81CB9BDE81040FEF79BB910BD9A
:108D200000ED00E00080005000E003500000FF0F65
:108D3000034A0179D36E23F030030B43D3667047A7
:108D400000400050F8B504461C4BD3F88420D106EF
:108D5000FBD4D3F88430C3F381139C422CD0FEF7AC
:108D60005FF9012C064602D121462DF0DAFE2DF0E6
:108D700043FE4FF00072124B07465A6620462DF014
:108D8000F6FE4FF480630D4D621E93402B676B6EB1
:108D90009A0103D4D5F884309B060AD538462DF0C5
:108DA0002FFE022C08D13046BDE8F84000212DF0FE
:108DB000B8BED5F88430EAE7F8BD00BF00400050E7
:108DC0000060005010B50C4608B9FEF729F9074BB2
:108DD00021461B783BB1064B984204D80120BDE8E0
:108DE0001040FFF7AFBF0220F9E700BFBC450020ED
:108DF000005A62020278034B012100201A70FFF72B
:108E0000E1BF00BFBC4500204FF0004238B5244B05
:108E1000244C5A664AF6CD33656C014605F00105CF
:108E2000236428BB0120FFF727FF6368DB0715D504
:108E30001D4B586008461D4B226BD2070CD498423C
:108E400008D1072415B1174B194A1A6432F0B0F94A
:108E5000204638BD0130EFE79842F2D00024F1E718
:108E60000132236B13F0080305D08A42F8D1E8E7FA
:108E700000220E49F5E78A42E3D020210A4A916296
:108E80000121A2F5805251600649084A886A80068D
:108E900003D49342D5D00133F8E79342DDE700BF16
:108EA00000900050004009500060095040420F00FF
:108EB0003254FFFF4FF0004238B5164B01465A6658
:108EC0004AF6CD33144C154A656C236443780B2065
:108ED0005B0043F00103D363FFF7CEFE63688A783B
:108EE00023F4F87343EA02136360CA784B7943EAC8
:108EF0000223A3600A798B7943EA0223236108786D
:108F0000FFF782FFEB0744BF054B236432F050F9B3
:108F1000012038BD00900050004009500040005032
:108F20003254FFFF4FF00042124B70B55D6E03F5F7
:108F300080535A664AF6CD3304460F4980204E6C62
:108F40000B64FFF799FE0B6A23F00F030F2C94BFFD
:108F5000234343F00F030B62F30744BF074B0B643B
:108F6000002DA2BF4FF00042054B5A6632F020F9A7
:108F700070BD00BF00800050004009503254FFFF18
:108F800000A000504FF00042104B70B55D6E03F52D
:108F900080535A664AF6CD3304460D4980204E6C04
:108FA0000B64FFF769FE0B6A23F4F85343EA0423CA
:108FB0000B62F30744BF074B0B64002DA2BF4FF0B9
:108FC0000042054B5A6632F0F3F870BD0080005045
:108FD000004009503254FFFF00A000502DE9F0413D
:108FE00005460F461E4690464AB101233022194CD1
:108FF0008B4002FB004436B304F5825423600F21FA
:10900000072F05EB450388BFA7F108044FEA0313B8
:10901000114895BFBC00A40004330C3308FA04F2D5
:10902000A14018442DF0A4FDB8F1000F09D101238F
:109030003021084ABB4001FB05223EB102F58252B5
:109040001360BDE8F08104F50154D7E702F5015241
:10905000F6E700BF00C0035030C0035010B5152024
:1090600002F086F80024FF22064B21465C65202092
:109070009A625C60FFF744F82146BDE81040212069
:10908000FFF73EB800000450044A054B002908BF12
:109090001346012282401A60704700BF40100450FE
:1090A0004020045010B5012104462020FFF728F885
:1090B00001212120FFF724F80122114B15205A60CD
:1090C000227812069A606178A27842EA01429A6197
:1090D000FF229A6200229A631A644FF000425A6596
:1090E0004FF0FF3203F500531A6502F061F81520C6
:1090F000E17802F06BF8BDE81040152002F04AB8A4
:1091000000000450F8B50125C3B2D1F800E091F891
:109110000AC00F7B0C469D40CB7A1D491D4E0D6544
:10912000810001F1A04101F58821C1F804E04FF070
:10913000300E0EFB00601B05617B43EA0C4343EAE3
:10914000475322F003020166C36502672DF05FFCFE
:10915000114B5D65237A13B1336C2B433364637A0F
:1091600013B1B36B2B43B3632279A37943EA024370
:10917000074A93616179E37943EA014306498B61C8
:10918000044B55639D64BDE8F8402DF046BC00BF1C
:1091900000200450000004500010045010B50124B9
:1091A000C0B284402DF033FC044B5A6D22EA040215
:1091B0005A659C62BDE810402DF02FBC00000450A1
:1091C00010B50124C0B284402DF021FC074BDA6AAF
:1091D000224208D15B6B9C430CBF012400242DF07C
:1091E0001CFC204610BD0024F9E700BF000004501D
:1091F0004FF48032054B9A6641F6713203F51C3309
:10920000DA63012203F50053DA60704700900050E2
:1092100041F671320121064BDA6303F50052D16049
:109220000022DA634FF48032A3F518339A66704750
:1092300000000350013831289ABF024B185C00200F
:10924000704700BF6109040838B5C2F3062504461B
:1092500002F0070241B942EA052242F440220634F4
:10926000074B43F8242038BD114628462DF090FCCA
:1092700002462846FFF7DEFF163442EA0022EFE7F7
:1092800000800350044B1868421C02BF034AD2F806
:1092900094001860704700BF604C002000400050F0
:1092A0004FF48032064B5A6603F5E6239B69C3F3FD
:1092B0008512827003F03F021B0B427003707047EF
:1092C0000090005040F6B732064B5B689BB2934269
:1092D0009FBF4FF47A72B3FBF2F3034AD05C88BFAE
:1092E000002070470080E00F930904080120034B21
:1092F0009B680A3303F01F03984070470080E00F1B
:1093000070B5054616461C4621B94FF42070FEF78D
:1093100011FF0146402C1BD003D8DCB1202C1BD000
:1093200070BD602CFCD1042303FB06F2530803EB51
:109330004113B3FBF2F3094A203B02EAC303AA68D4
:1093400022F06002AA60AA681443AC60EB61E7E710
:109350000623E9E71023E7E70823E5E7F8FF7F00A6
:10936000012100F5805310B5596040F6AA6341F21F
:10937000050243610023094C8360C365C26000F5A8
:1093800000520361C361C3649464054C8365A042C9
:1093900004BF03654365516010BD00BFFFFF0100BE
:1093A00000C0055070B50D46FFF7DAFF012300F548
:1093B00080567360AB7C04461BB1836843F08043E6
:1093C0008360EB7C5BB1244B9C4202BF2A7DA3F5FA
:1093D0001033C3F8C821E36D43F08003E3652A8AA4
:1093E0006B7B20461343EA891343E3602B7BD5E96B
:1093F0000112FFF785FF6B7D1BB1A36843F4803337
:10940000A360AB7D1BB1A36843F40043A360EB7D75
:109410002A7E1B07120502F4E00203F0E043134327
:10942000A3656B7E9A1E012A4FF0020209D80B49F0
:10943000032BC1F8202709D10423F3652B7863613E
:1094400070BD0749012BC1F82027F4E7042204F579
:109450000053DA65F2E700BF00C0055000D00350AA
:1094600000E0035038B50D46FFF77AFF012200F502
:1094700080535A602B8AA97B826843F0010343EA38
:1094800081231343836083682A7D044643EA427341
:109490008360AB7C5BB1194B984202BFEA7CA3F5B9
:1094A0001033C3F8C821C36D43F08003C3652B7B21
:1094B0002046D5E9011243F48053E3602DF08BFB85
:1094C0006B7B0BB1102363616B7D1BB1A36843F40D
:1094D0008033A360AB7D1BB1A36843F40043A3605A
:1094E000EB7D2A7E1B07120503F0E04302F4E00245
:1094F0001343A3652B78636138BD00BF00C00550DE
:10950000034B5A68D20702D5DA69002AF9D17047AD
:1095100000800A50054B9A689107FCD45A6892075C
:10952000F9D4DA69002AF6D1704700BF00800A50EA
:1095300008B5FFF7E5FF0222014B1A6108BD00BF25
:1095400000800A5008B5FFF7E5FF0122024B03F542
:1095500080514A601A6108BD00800A5008B5044B6A
:109560005968012903D1FFF7E3FF024B596008BD99
:1095700000800A5000A00A5010B5064CFFF7CAFF41
:109580006368012B03D1FFF7E9FFFFF7C3FF0378FF
:10959000E36010BD00800A50B8B94A680B7812B178
:1095A000127843EAC2034A7843EA42038A6812B156
:1095B000127843EA82138A7843EA8203CA6812B1B6
:1095C000127843EA4223014A9364704700800A50AC
:1095D00008B9014B5964704700900A5008B9014B13
:1095E0005964704700A00A5008B9014B19647047CC
:1095F00000A00A5010B9024B186C70470020704749
:1096000000800A5048B911B1012903D07047044BBA
:10961000D86C7047024B186D70470020704700BF30
:1096200000800A5040B911B1012903D07047034BA3
:10963000DA647047014B1A65704700BF00800A501A
:1096400010B9024B586D70470020704700800A50D7
:1096500038B50446054D31F0D0FD0FCC0FC594E868
:10966000030085E80300002038BD00BF881F0020EC
:1096700047F6FF739A42F0B56FD002296FD8394B85
:109680005B5C012B6BD8384DDF0005EBC30415F88C
:109690003330A178012B13D10025E078401AA8427D
:1096A00002D80844C0B2F0BD431B6668A0EB530368
:1096B00036F913609642D4BF1D4603F1FF30EEE742
:1096C00060680028EFD0B0F90040944204DBB0F9A4
:1096D00002409442B8BF144683883D44FF2B19BF13
:1096E000C8224FF0280CB0F90620B0F908C0A2EB50
:1096F00004030CBF0126002693FBFCF333446E7871
:109700001BB29E4201DD002B01DA731E1BB24FF427
:109710007A7C01339BB2071D5D1E2DB24FEAC50E48
:1097200000EBC505EA88AD689E4214FB025222EAAE
:10973000E27202F15C02B2FBFCF204DD37F8335056
:1097400001339542E8D200EB0E039888904228BF7F
:109750001046884238BF0846A4E7FF20A3E7002050
:10976000A1E700BF96090408881F00200229F0B570
:1097700055D82C4B585C012851D82B4C04EBC00118
:1097800014F830004B6801280FD1C8788C789042CB
:1097900094BFC4EB0001C4EB0201001BCAB28242B9
:1097A000C8BF002233F91200F0BD002B37D08878F3
:1097B000904202D3B3F90200F6E7CC78B3F9000087
:1097C0009442F1D94C789988013CA1F1FF0671428D
:1097D00003F10405E4B2714103F10C07CEB2B442C7
:1097E00016D805EBC1014FF47A756A43B1F902400E
:1097F0004968521A04EBD47102EB610292FBF4F255
:109800009042D1DBB3F902009042CDDC10B2CBE73D
:1098100037F831C04E1C9445E3D33146DEE70348A8
:10982000C2E700BF96090408881F00200080FFFFE0
:1098300008B50448FFF70CFFBDE80840012031F0EF
:1098400001BD00BF9C0904087FB50222084B0949ED
:10985000CDE901234FF00073CDE90313072301A9DC
:109860004FF0FF30059331F02DFD07B05DF804FB9C
:10987000006A18000002060008B5B0B14FF480621B
:109880000B4B9A662DF041FD4FF098435A6CD20273
:10989000FCD54FF48062586D064B10F470209A6628
:1098A00004D0BDE808402DF05FBA212008BD00BFFC
:1098B0000090005000A000502DE9F0418CB0884687
:1098C000DDE912761D460446002847D0002945D020
:1098D000002F43D0002E41D013F00F033ED120487B
:1098E0002049A360002A08BF0146E361C4E90013D0
:1098F000404609A92DF034FB68BB204609992DF09C
:10990000FBFC294620462DF0F7FC6946404600F056
:10991000F7FA00BB694620462DF0DAFC404603A961
:109920002DF01DFCB8B9204603A92DF0D1FC0697F7
:109930000127204645F0005506A9079708952DF008
:10994000C7FC204609A909960A970B952DF0CAFC79
:109950002046FFF791FF0CB0BDE8F0812120FAE727
:1099600000010004000101042DE9F04F97B0894681
:1099700090461F460546DDF880A0002800F0BB8019
:10998000002900F0B8803AB1229B002B00F0B38090
:10999000239B002B00F0AF80BAF1000F00F0AB80EA
:1099A000219B002B00F0A78067B13C680026229B1A
:1099B00043440293464507D307B13C60002017B0EB
:1099C000BDE8F08F3C46F1E75CB1229B219A9B5D9C
:1099D000125D01345340239A04F00F04935501366D
:1099E000E8E7A8EB060BBBF10F0F58D9434B4846ED
:1099F000C5E90034AC60EC6113A92DF0B1FA002880
:109A0000DDD1284613992BF00F0B2DF075FC59462C
:109A100028462DF071FC484604A900F071FA002890
:109A2000CDD1284604A92DF053FC484607A92DF0B6
:109A300096FB0028C3D1284607A92DF049FC012335
:109A400022992F4ACDF828A00B930C928A190D92D7
:109A500028464BF000520AA90E9303920F922DF064
:109A600037FC28460DA92DF033FC239B039A991946
:109A70000123109111931292214A284610A9CDF882
:109A80004CA0149315922DF02DFC284613A92DF00F
:109A900029FC2846FFF7F0FE5E4400288FD1229B68
:109AA00003EB060B239B1E44029B5B4501D14646FC
:109AB00080E7ACB9219B2246CDE900A3494610239B
:109AC0002846FFF7F9FE00287FF479AF0AF110026B
:109AD00012F8013D0133DBB213700BB95245F7D1D7
:109AE000219A1BF8013B125D0134534006F8013BFB
:109AF00004F00F04D8E7212061E700BF030300044E
:109B0000100000202DE9F04F97B0894615469A467F
:109B10000446209FDDF88880DDF890B0269E00285E
:109B200000F09D80002900F09A80002E40F08A808D
:109B3000002B00F09480B8F1000F0AD0219B002B7D
:109B400000F08D80002A40F09F80F10700F18780AF
:109B500002E0002A40F08580FB1F062B7FD8524B85
:109B60000BEB05029A427AD80023504A4846C4E9D2
:109B70000023A360E36113A92DF0F2F900285ED160
:109B8000204613992DF0B8FB204646EA07412DF0F8
:109B9000B3FB414620462DF0AFFB294620462DF071
:109BA000ABFB484601A900F0ABF9002847D120469D
:109BB00001A92DF08DFB484604A92DF0D0FA00280C
:109BC0003DD14FF00109204604A92DF081FB239BD4
:109BD00045F000550793219BCDF82090204609952C
:109BE0000DA90A9347F0005748F00053CDF82C9088
:109BF0000C93CDF834A0CDF838900F972DF068FB7A
:109C000020460AA92DF064FB204607A92DF060FB31
:109C1000259B204610A946F00056CDF840B0CDF85F
:109C2000449012951393CDF8509015962DF05AFB51
:109C3000204613A92DF056FB2046FFF71DFE17B056
:109C4000BDE8F08F259B53B1BAF1000F07D0B8F1F2
:109C5000000F01D0219B13B1B5B9022E20D12120D4
:109C6000EDE7239B002BFAD0BBF1000FF7D0C7F133
:109C70000F03DBB2032B3FF668AF0122DB0002FAD1
:109C800003F3AB42EBD9E8E7239B002BE7D0BBF112
:109C9000000FE4D0C7F10F03DBB2032BDDD8ECE7F4
:109CA000102E7FF652AFDAE7000004200000050412
:109CB0002DE9F04F99B0884615469B460446229FF1
:109CC000DDF89890289E60B159B1279B4BB1BBF14C
:109CD000000F06D0249B0BB1239B13B11DB9022E9C
:109CE00013D121239AE0259B002BFAD0B9F1000F64
:109CF000F7D0C7F10F03DBB2032BF0D80122DB0052
:109D000002FA03F3AB42ECD9E9E7731E0F2BE8D854
:109D100016F0010AE5D1FB1F062BE2D8414B09EBF7
:109D200005029A42DDD8404B4046C4E9003AC4F8E7
:109D300008A0C4F81CA015A92DF012F903460028AC
:109D40006CD1204615992DF0D7FA204646EA0741F6
:109D50002DF0D2FA204624992DF0CEFA294620463D
:109D60002DF0CAFA404603A900F0CAF803460028BD
:109D700054D1204603A92DF0ABFA404606A92DF098
:109D8000EEF90346002849D14FF00108204606A904
:109D90002DF09EFA259B2046099345F00053CDF8FF
:109DA000288001930B93239B0FA90C93249B47F0CE
:109DB000005743F00052CDF834800E92CDF83CB0FD
:109DC000CDF8408011972DF083FA20460CA92DF094
:109DD0007FFA204609A92DF07BFA019B204612A9A3
:109DE000CDF84890CDF84C8014932DF07BFA279B4A
:109DF000204615A946F000561593CDF858801796C1
:109E00002DF066FA2046FFF737FD034630B101908A
:109E10002A465146484636F00AFD019B184619B0BD
:109E2000BDE8F08F00000420000006042DE9FF4784
:109E30004FF000080E4617460446CDF80080002873
:109E400059D022B90025284604B0BDE8F087002982
:109E500051D032F0030902F0030A1FD04FF0E06343
:109E6000C0E9003801230191C0F808800293C0F8CE
:109E70001C8049F0005301A903932DF033FA4946A1
:109E800020462DF039FA2046FFF7F6FC054628B1AA
:109E90004A464146304636F0CAFCD4E7BAF1000FD4
:109EA000D0D04FF000084FF0E063C4E90038012340
:109EB000CDF804D00293114B204601A9C4F80880C4
:109EC000C4F81C8003932DF00DFA042120462DF0D8
:109ED00013FA2046FFF7D0FC054608B13A46D8E70A
:109EE000009A4E44EB00013522FA03F3AA4506F826
:109EF000013BF7D1A6E72125A5E700BF040000201C
:109F000090B189B101234B60C368013B012B08D894
:109F10008269064B1AB10A6000208B607047044AC0
:109F2000F9E74FF00053F7E72120704708000020C1
:109F30000C100408012300F01F02A0F506200949B7
:109F4000A0F550604009934051F820201A4341F891
:109F50002020054951F8202022EA030241F8202060
:109F6000704700BFC01F0020A01F00200122A0F5E5
:109F700006230D49A3F550635B0900F01F008240E2
:109F800051F82300024341F8232000231946074AD1
:109F900052F8040B0133082B0144F9D119B92022DE
:109FA000014836F044BC7047A01F0020C01F0020AD
:109FB0002DE9F04FA9B003921E4604460822339FB4
:109FC000CDE90401414021FA02F34B40980702F128
:109FD000080218BF9B00202A1C44F4D1744BE4B241
:109FE0001B7804F5062404F55064002B3ED1FDF7E0
:109FF00047FD054620B16FF0910029B0BDE8F08F14
:10A000000146402208A836F012FC4022294618A832
:10A0100036F00DFCDFF8B481DFF8B491C3460BF1E4
:10A020000F0ACDF800A05B461022D9F8000008A95D
:10A0300030F01DFF0023024608F1100808AD9A42D7
:10A040003DD1CDF800A05B461022D9F8000018A938
:10A0500030F016FF4FF0000A834618ADD34538D1D3
:10A06000544B9845DAD10122514B1A704FF4807845
:10A070000025DFF860B1A4F50623A3F5506252096C
:10A080005BF8221004F01F00C140C90734D44A49CC
:10A0900051F82220C240D20722D5A3F6FF43DBB2FB
:10A0A000002D08BF254603F50624B8F1010804F584
:10A0B0005064E0D1039BABB1A5B12C4618E055F834
:10A0C000040BCDE90623FFF735FF079B069A013302
:10A0D000B5E755F8040BFFF749FF0AF1010ABDE7A0
:10A0E000039B13B96FF08B0087E7002D18BF2C4638
:10A0F000349B00201C6080E7329B13B10023329A0E
:10A1000013600FB100233B604FF0100ADFF8C090DE
:10A11000CDF800A0002332462146D9F800000AF00D
:10A1200067FC58BB32993268244BC1B99A4206D0B9
:10A130002146D9F800000AF0C3FD0028D2D1D6E9A3
:10A140000223DDE90410834208BF8A4226D0A4F529
:10A150000624A4F6FF44E4B204F50624A5E73299E8
:10A160009A42C1F800A0E3D1002FE8D03B46214637
:10A17000D9F8000018AA0AF05FFD48B1104B9842C8
:10A18000D6D0104B9842D3D00F4B9842D7D032E75D
:10A19000329A3B6812689B1A3B60D0E7039B002B06
:10A1A000A6D07368012BA3D16FF0840025E700BF10
:10A1B000BD45002000710800A01F0020105D175E43
:10A1C000FFDF00F011E000F0FEDF00F0006D08009E
:10A1D0005C4C0020C01F00202DE9F04F87B0824664
:10A1E000894698461646DDF840B02AB1002B4FD07C
:10A1F00040F26C739A424ED8BBF1010F4ED8002446
:10A2000006F110073946012005942DF081FF05461F
:10A21000002846D021463A4636F009FB05ABCDE989
:10A22000014300942B46012250464946FFF7C0FEE9
:10A23000044680B110F18C0F08BF6FF08D043A46D0
:10A240000021284636F0F3FA28462DF043FF204639
:10A2500007B0BDE8F08F144BC5E902A92B60C5F823
:10A2600004B02EB13246414605F1100036F0F1FA45
:10A27000059E0E483B462A46314600680AF020FB00
:10A2800018B93046FFF756FED9E76FF09104D6E7CC
:10A290006FF08604DBE76FF09104D8E76FF0850478
:10A2A000D5E76FF08C04D2E7105D175E5C4C0020A0
:10A2B0002DE9F0438DB08146DDE914780E46154650
:10A2C0001C469BB1B8F1000F05D16FF086063046F1
:10A2D0000DB0BDE8F083002FF7D0B7F1005FF4D3E5
:10A2E000C3F1005303F580239F42EED810220021D2
:10A2F00008A836F09CFA002207AB029305AB019345
:10A3000006AB31460093484608ABCDE90522FFF77E
:10A310004FFE06460028DAD1059BA4B1AB4215D802
:10A3200053EA0504D1D1069B0B48C8F800400094BD
:10A330003A46079900682B440AF05AFB002818BFD8
:10A340006FF09106C3E7AB42EDD2BEE75B1B9C42C8
:10A3500028BF1C46E7E700BF5C4C002030B58DB03D
:10A360000C4605461022002108A836F060FA0022AB
:10A3700007AB029305AB019306AB21460093284639
:10A3800008ABCDE90522FFF713FE0446D8B9099BB7
:10A39000012B1BD0079D104B294618680AF090FC32
:10A3A000B8B90122A5F506230C49A3F550635B0952
:10A3B00005F01F00824051F823004240284641F832
:10A3C0002320FFF7D3FD20460DB030BD6FF084048D
:10A3D000F9E76FF09104F6E75C4C0020C01F002005
:10A3E00030B5048804F4E043B3F5005F2ED1C4F324
:10A3F0000223042B2AD181F0AA6383F4807333F4FF
:10A400007E132AD081F0AA6383F4007333F47E13A1
:10A4100023D00023144D21F47E11A9421AD1B4F5A2
:10A42000105F17D1418821F04000802802D0B1F59B
:10A43000807F15D1191F0C2912D8DB0710D4073AD9
:10A44000072A34BF00206FF0860030BD42F20403BB
:10A450009C42DED16FF08500F7E7C1F30543D9E7F1
:10A460006FF08600F1E700BF000140052DE9F04FD5
:10A470009BB08146DDE928761D468B46DDF8A88035
:10A48000DDF8BCA0099241B138B1249B2BB1269BC9
:10A490000BB9279B0BB91FB94EB16FF086047FE053
:10A4A0002EB1B8F1000FF8D02B9B002BF5D02C9BD0
:10A4B000002BF2D0BAF1000FEFD02E9B002BECD086
:10A4C0002D9B002BE9D0B9F8003003F4E042B2F53F
:10A4D000005F69D1C3F30222042A65D185F0AA6323
:10A4E00083F4807333F47E1306D085F0AA6383F47B
:10A4F000007333F47E1360D1C5F305432946484603
:10A50000259ACAF80030FFF76BFF0446002847D1B0
:10A51000014620220AA836F08AF92022214612A8F4
:10A5200036F085F90AA82CF04DFC002855D1594683
:10A530004846099A12AB00F0C3FA044600282FD10E
:10A540002B9B9E424CD8DAF800302E9A934247D883
:10A55000474508D2BB19984505D239463246404690
:10A5600036F04BF94746204B25F47E159D4226D107
:10A57000DAF80030324606932D9B0397CDE9048329
:10A58000279B12A90293269B0AA80193259B00935F
:10A59000249BFFF7B7FA212819D0D8B92C9B1E604D
:10A5A00020461BB0BDE8F08F42F20402934204D172
:10A5B00085F0052383F480139BE700239EE76FF06B
:10A5C000880400232C9A1360CAF80030E8E76FF083
:10A5D0008604F6E76FF09204F3E76FF09204DFE78A
:10A5E0006FF08904DCE700BF000140052DE9F04F62
:10A5F00099B08A46DDE926659346984681462A9FAA
:10A6000028B96FF08604204619B0BDE8F08F002904
:10A61000F7D0229B002BF4D0249B13B9259B002B51
:10A62000EFD10EB9002DECD117B92B9B002BE8D13F
:10A630002C9B002BE5D0289B002BE2D041464846BE
:10A64000239AFFF7CDFE04460028DCD120220146E4
:10A650000DEB020036F0EBF82022214610A836F070
:10A66000E6F808A82CF0AEFB10B16FF09204CAE730
:10A670005A465146484610AB00F022FA04460028DC
:10A68000C1D12B9B9D422AD8BE4208D273199F424A
:10A6900005D231462A46384636F0AFF83E46144BCE
:10A6A00028F47E1898451DD1299B2A460693289B9D
:10A6B0000396CDE90473259B10A90293249B08A857
:10A6C0000193239B0093229BFFF7F2FA212898D055
:10A6D0002C280AD00028C8D12C9B1D6093E76FF06E
:10A6E000890490E76FF088048DE76FF094048AE79F
:10A6F00000014005084B984202D0084B984207D110
:10A700000B88B3F5105F0CBF00206FF08500704719
:10A710006FF08500704700BF004440040013C00480
:10A720002DE9F04F99460023A3B09346DDE92E743E
:10A73000DDE93068CDE90633CDE90833CDE90A33E8
:10A74000CDE90C33DDF8C8A00490059129B96FF06C
:10A750008605284623B0BDE8F08F002AF7D00FB950
:10A76000002CF4D12C9B13B92D9B002BEFD116B9E3
:10A77000B8F1000FEBD1BAF1000FE8D048460499C8
:10A78000FFF7B8FF05460028E3D10146202212A8B2
:10A7900036F04DF8202229461AA836F048F812A8BB
:10A7A0002CF010FB002878D1DDE904015A461AABE1
:10A7B00000F086F905460028CBD11A982CF0E5FE6A
:10A7C00005460028C5D114B9CAF80000C1E7B74250
:10A7D0000AD23B199E4207D24445B8D83946224690
:10A7E000304636F00AF837464E4B994558D003F5B7
:10A7F0004073994515D04C4B994540F08C804445A9
:10A80000A5D814F00F02A2D12346CDE900761AA9EB
:10A8100012A8FFF751F80746002834D1CAF80040C3
:10A8200097E700234445CDE90E33CDE910338ED8A8
:10A830002D9B0D2B8BD101238DF838302C9B0DF1E6
:10A84000390203F10C0153F8040B8B4242F8040B5C
:10A85000F9D11B78137001238DF8473014F00F09DC
:10A8600033D10F2CDAD906AB01930EABCDE90276CA
:10A87000009324F00F0200231AA912A8FFF774F81E
:10A880000746002843D042460021304635F0CFFF2E
:10A890000023012FCAF8003040D06FF0920558E72E
:10A8A00044453FF654AF2D9B102B7FF450AF2C9BAB
:10A8B0000DF1380C03F1100E624618685968083320
:10A8C00003C273459446F7D1C8E724F00F033B4415
:10A8D0000DF1280C03F1100E624618685968083310
:10A8E00003C273459446F7D10F2CBCD824F00F0354
:10A8F000334403930AAB029306AB01930EAB009370
:10A900004A4600231AA912A8FFF72EF883E7B9F1E7
:10A91000000F83D0EAE76FF085051AE76FF08B052B
:10A9200017E700BF0010C004004440042DE9F04FB9
:10A93000994600239FB09346DDE92865DDE92A7832
:10A940008A46CDE90633CDE90833CDE90A33CDE9AE
:10A950000C33059029B96FF0860420461FB0BDE87E
:10A96000F08F002AF7D00EB9002DF4D117B9B8F145
:10A97000000FF0D12C9B002BEDD048460599FFF736
:10A98000B9FE04460028E8D1014620220EA835F081
:10A990004EFF2022214616A835F049FF0EA82CF0C4
:10A9A00011FA002844D15A465146059816AB00F0DA
:10A9B00087F804460028D0D116982CF0E6FD04460E
:10A9C0000028CAD115B92C9B1860C6E7BE420AD22E
:10A9D00073199F4207D24545BDD831462A463846AD
:10A9E00035F00BFF3E46344B994549D003F5407393
:10A9F000994520D0314B994554D1454555D82B0721
:10AA0000A9D12B460122CDE9006716A90EA8FEF7B1
:10AA100053FF2C9B06461D6000289ED04246002115
:10AA2000384635F004FF00232C9A012E13603FD0E6
:10AA30006FF0920491E70D3D454536D801238DF81E
:10AA4000283033460DF1290206F10C0153F8040BAE
:10AA50008B4242F8040BF9D11B780D3613704FF47A
:10AA60008073ADF8363006AB01930AAB00932A46EB
:10AA70000023CDE9026716A90EA8FEF775FFC8E707
:10AA8000103D454511D833460DF1280C06F1100E46
:10AA9000624618685968083303C273459446F7D173
:10AAA0001036E0E76FF0850457E76FF0890454E74C
:10AAB0006FF08B0451E700BF0010C0040044400455
:10AAC000F0B5164600221C4643688DB01B0A0746A7
:10AAD0000D46009204D0012B38D06FF08B0071E04E
:10AAE0002246314600962CF077FD00286AD1F31CEF
:10AAF000C4E9030523F003036361002E00F0A38083
:10AB00002022002101A835F092FE3146384601AAE4
:10AB10002CF062FD002840F096802368019A9A424A
:10AB200040F091806368029A9A4240F08C80A3685A
:10AB3000039A9A4240F08780A369079A9A4240F0AC
:10AB40008280E369089A9A423CD07CE0032E7FD948
:10AB50000B78012B40F08780497800294BD0F739DA
:10AB60000829BAD801A353F821F000BFD3AB0008DD
:10AB700091AB0008DBAA0008C9AB0008DBAA0008FB
:10AB8000EDAB0008DBAA0008DDAB0008E5AB000870
:10AB90004FF41056F825354F1C22002102A835F03D
:10ABA00046FE03230197CDE90435039601AA09ADBA
:10ABB000134603CBAB42206061601A4604F10804DF
:10ABC000F6D100200DB0F0BD10274FF08076FA25A9
:10ABD000E2E720274FF00076F725DDE7FE25234F3B
:10ABE000234ED9E7FF25214F224ED5E74FF41056CB
:10ABF000FC251E4FD0E72B2E2AD92022204635F0E7
:10AC000016FE05F110032361AB070DD001AB05F172
:10AC1000280C1A4628686968083503C2654513463A
:10AC2000F7D1286801AD10606B68103E2360AB68F7
:10AC300069466360EB682046A36001236661E360B8
:10AC40002CF0CFF838B120220021204635F0EFFD5E
:10AC50006FF08600B6E7009E626906F11C039A4217
:10AC6000BFF44BAFEFE76FF09100ABE7200000803F
:10AC70000044000200440003B8B1036813F4E07F0D
:10AC800003F03F00C3F382120AD0012A0DD1084B12
:10AC900041B103F58053012282401A6000207047C1
:10ACA000044BF5E703F50053F5E70E20704700BFAE
:10ACB000688000506480005030B58BB06D46774C92
:10ACC0000FCC0FC554F8043B68462B604FF07E63F1
:10ACD00093F89C306D46FF2B08BF3F238DF8013061
:10ACE000FDF7C2FD3220FDF7FDFD0FCC0FC50FCCE7
:10ACF0000FC594E8030085E80300694BD3F84C21A5
:10AD0000110340F1AE80A3F5FE431C884FF6FF739C
:10AD10009C4208BF8C248DF81940FDF76FFD044458
:10AD200084F308045F488DF81840FCF7AFF96846D3
:10AD3000FDF740FC3220FDF7DBFD5B48FDF7B2FE7E
:10AD40005A48FDF723FF5A4C01213620FDF7D8F968
:10AD50000020FDF7D3FDFDF783FE236F002023F0D5
:10AD6000070343F003032367236F23F4744343F47F
:10AD7000806323672BF0E0FE4E4BD3F8FC20D2011A
:10AD800073D4D4F8803023F0030343F00103C4F8F4
:10AD90008030D4F88030C4F88030454CD4F820316D
:10ADA00023F0070343F00203C4F82031D4F828311C
:10ADB00023F0070343F00203C4F82831D4F88031AC
:10ADC00023F0030343F00103C4F88031D4F8403189
:10ADD00023F0030343F00203C4F84031D4F8603198
:10ADE00023F0030343F00203C4F86031D4F8403287
:10ADF00023F0030343F00203C4F84032D4F80032D6
:10AE000023F0070343F00203C4F80032D4F80832F9
:10AE100023F0070343F00203C4F80832D4F8703279
:10AE200023F0030343F00103C4F87032D4F8203256
:10AE300023F0070343F00103C4F82032FDF7A2FB1F
:10AE40004FF0E0220020136963F004031361D4F88B
:10AE5000603223F0070343F00103C4F860320BB003
:10AE600030BDD3F85041E4B255E7D3F8FC2022F0CE
:10AE70008072C3F8FC20D4F8802022F0030242F054
:10AE80000102C4F88020D4F88020C4F88020D3F8D0
:10AE9000FC2042F08072C3F8FC207EE71410040806
:10AEA0000080E00FC017530200B4C404C0EA2101BF
:10AEB0000080005000ED00E007B5094B18689A8843
:10AEC0009B7900906846ADF804208DF80630FDF7B8
:10AED000F1FF0C20FEF726F8002003B05DF804FB1C
:10AEE0005010040870B503F0C1F90446E8B903F046
:10AEF0001FFC03F0A5FA4FF4167343430C4A03F505
:10AF0000742303F23F23B3FBF2F30A490A480B60B0
:10AF10000A230268094D0E68013B45F8046B0E6870
:10AF200013F0FF033244F6D10260204670BD00BF2B
:10AF300040420F0014200020E41F0020E81F0020E2
:10AF4000012208B5034B1A702DF055F9024B186019
:10AF500008BD00BFBE450020E01F002010B503F073
:10AF60006FFA04462BF0ECFC844207D92DF04FF920
:10AF700020B10122024B1860024B1A7010BD00BFB5
:10AF8000E01F0020BE450020F8B51F4C2378E3B138
:10AF90002DF031F91D4B1E4D1B68C01A28602B681F
:10AFA000A3B12B682B6003F04BFA4FF41672504399
:10AFB000184A00F5742000F23F20B0FBF2F02B6835
:10AFC0002B68834204D900232370F8BD0123E9E7ED
:10AFD0001148124E0378296856F82320104F511A51
:10AFE0003A68521A29683A6046F823100A21093251
:10AFF000B2FBF1F20B4D0133DBB22A60B3FBF1F28D
:10B0000001FB12330370DEE7BE450020E01F002085
:10B010001020002040420F00BF450020E81F002004
:10B02000E41F002014200020014B1868704700BF67
:10B030001420002070B502212C2000F0C7F84FF436
:10B04000801204250E4C0F4B0F4E5A6604F5005328
:10B050005E672C205D671E671D6700F0A9F82C2035
:10B0600000F098F804F580535E675D67A36A23F0EB
:10B070000073A362A36A43F48053A36270BD00BF50
:10B080000040005A00900050010000A0064B074A03
:10B09000996D11F0050F01D0117811B10028F7D189
:10B0A00070470120704700BF0040005AC045002093
:10B0B000154B10B51C6F14F004020FD003F50053AC
:10B0C0001A6708229A62FFF749FF02F001FE02F0B8
:10B0D000E1FD012003F0D8FA2DF09BF8E30706D537
:10B0E00001220A4B1A67FFF74FFF02F0D3FD14F05D
:10B0F00000521CBF054B1A67002CBEBF4FF0004228
:10B10000024B1A6710BD00BF0040005A0060005A91
:10B110006FF00403502110B50A480B4C13F0800F58
:10B1200003F1010206D123444C2A83F8001313468D
:10B13000F4D110BD03F00F03043B0344197613460A
:10B14000ECE700BF00ED00E000E100E0BFF34F8F4F
:10B150000549064BCA6802F4E0621343CB60BFF3B3
:10B160004F8F00BFFDE700BF00ED00E00400FA05CF
:10B1700000280CDB01220649430900F01F00824031
:10B18000203341F82320BFF34F8FBFF36F8F7047F9
:10B1900000E100E0002807DB01234109034A00F039
:10B1A0001F00834042F82130704700BF00E100E0FB
:10B1B000002808DB01224309034900F01F008240F8
:10B1C000603341F82320704700E100E00028ACBF65
:10B1D00000F16040064B4FEA0111C9B2ABBF00F568
:10B1E000614000F00F0080F800131954704700BF51
:10B1F00014ED00E010B504462BF0FEFB024B1C6082
:10B200002BF0FEFB002010BD1820002010B52BF005
:10B21000F3FB034B1C682BF0F3FB204610BD00BF73
:10B220001820002038B50C461546014610B9FFF726
:10B23000EDFF01462B462246034808F08DF8002812
:10B24000D4BF3720002038BD4D7A030810B5002444
:10B2500000F024F80348044B84604360FFF7CAFF02
:10B26000204610BD1C2000206DB2000813B5064C0E
:10B2700023780093054B1B882CF005FC10B923782C
:10B280000133237002B010BDC14500206C51002075
:10B29000014B1880002070476C51002008B5074B07
:10B2A0001A6842B9012208201A602BF0C1FB044938
:10B2B000044802F095FB002008BD00BF30200020AC
:10B2C000804C00202820002030B51446054687B069
:10B2D00010462CF031FC6369024683423CBFD4E93E
:10B2E00003315B181B1A7BB10F49049403910021B1
:10B2F000CDE90131012300932846D4E900132BF056
:10B30000AEFB002007B030BD0122627694F82D20FC
:10B31000002AF6D084F835301321E3692046984797
:10B320002046636A9847ECE7C9B200082DE9F04768
:10B3300088B004460F46164698462BF068FB8146B7
:10B34000002E7AD0237E03F0FF02002B00F0A280B3
:10B3500020462CF0F1FB6569A84205D1637ED4E953
:10B36000033213445D1B01E0F9D9451BB54228BFE8
:10B3700035462BF04CFB94F82D308246002B6DD1D6
:10B380002A463846616935F064FA63692E462B44D3
:10B39000636121E0037803F0FD0111295BD1216B8A
:10B3A000814205D1A3F111014B424B4184F8343065
:10B3B000013E6369216B01328B4203F1010308BF37
:10B3C0002363636195426069E4D1D4E90323216B6F
:10B3D0001344994200D122630025D4E90323616913
:10B3E0001344994208BF6261207A6576FCF764FADB
:10B3F00020462CF0A1FB6369834232D1257694F874
:10B400002D30E568656103B125632046636A98477E
:10B41000214B049403930023029323692A4601934A
:10B420000123009363682168207A2BF018FB207AAF
:10B43000FCF762FA50462BF0F0FA4846C8F8006074
:10B440002BF0EBFAD8F80030002B0CBF1B200020AB
:10B4500008B0BDE8F08707F8013BAAE72E460022B6
:10B46000B0E70123207A23760DF11E01FCF7ACFA38
:10B470009DF81E30002BDAD00DF11F01207AFCF769
:10B480007BFA9DF81F100029D1D12246207AFFF7C0
:10B490001BFFCCE71646D0E7C9B200082DE9F04102
:10B4A0000C461546064686B04022002120461F461F
:10B4B00035F0BDF995E8030000232A692376EB688F
:10B4C00084E80300C4E904232A7DE36084F82C2087
:10B4D000AA7D2363012384F8343084F835300C9B33
:10B4E00084F82D2023620D9BE76163620E9BA362AB
:10B4F0002B7A84F836306B7A84F837302D4B3460F1
:10B5000073602D4BB3602D4B33612D4B73612D4B0D
:10B51000F360FCF79DF938B12B4B984204D010240E
:10B52000204606B0BDE8F081002104F10800FCF7D8
:10B5300017F907460028F2D14FF00108234B336278
:10B54000234B84F83C80B361224BF3619DF840307B
:10B5500084F8390084F83B309DF83C30204684F86C
:10B560003A30697D84F838802CF023FB95F9090086
:10B57000FFF71EFE95F90900FFF70CFE164B049429
:10B58000CDE902732369CDE900836368E26821682D
:10B59000207A2BF064FA04460028C0D195F90800FF
:10B5A000FFF706FE95F90800FFF7F4FD3046FFF7B8
:10B5B00021FEB5E7037C03082DB30008277B0308B1
:10B5C0002D7B0308597B0308038000F0017B0308EF
:10B5D000B37B0308337B0308C9B200082DE9F041AF
:10B5E00001271C465B4B86B002935B4B0C9D01937D
:10B5F0005A4B904600930A46CDE903772946584BAB
:10B60000FFF74CFF0646002840F09B802368394630
:10B610002B6463683A206B64637A85F84930237A37
:10B6200085F84830E37A85F84B30A37A85F84A30BC
:10B63000637B85F84D30237B85F84C30E37B85F8C0
:10B640004F30A37B85F84E30FCF75AFD3B46042271
:10B65000617A207AFDF7C2FC3B460222E17AA07AA9
:10B66000FDF7BCFC39466068FCF74AFD88F80060CD
:10B6700041462068FDF796FE1420617C394B01F1AC
:10B68000390252019850607A227A03EB411342EA60
:10B690000042C3F83827E17AA27A42EA0142C3F8AD
:10B6A000302785F8506098F81930032B4FD8DFE821
:10B6B00003F0394C021C022385F850300023042289
:10B6C000E17BA07BFDF78AFC0220617C254B01F128
:10B6D000B9025201985003EB411341F22C71E07B07
:10B6E000A27B42EA00425A501CE0012785F8503004
:10B6F00002220023617B207BFDF770FC617B227BB3
:10B70000637C42EA014241F228715B0103F1A043EC
:10B7100003F570335A500422236803F58053DA6529
:10B72000002FCBD1237A2A6C85F84830637A052123
:10B7300085F84930D36C206843F00403D3642BF0C0
:10B740005AFA304606B0BDE8F0810027CEE723263E
:10B75000F7E700BF317D0308257D0308BD7D0308A1
:10B76000B17D030800C0035013B5064C2378009345
:10B7700011232CF088F910B923780133237002B01B
:10B7800010BD00BFC245002037B5FFF787FD01257A
:10B790000E4C0F4A0F49206020230095082007F027
:10B7A0006BFE0D4B204663600C4BA360FFF722FD40
:10B7B0002BF022F904462946284602F07DF820465F
:10B7C0002BF01EF9002003B030BD00BF3420002054
:10B7D000C34500207E10040869B700086F7E030887
:10B7E0001A2812D8102814D940F28523A0F111028A
:10B7F000D2B2D340DB070CD50122064B80F02000EB
:10B800001A70054B18707D2003E0A0F17D03012B19
:10B81000F2D97047EA450020E9450020F8B50E4608
:10B820001446204B00B3204A2049107000221A70A1
:10B8300022700A704FF6FF721D4B1A801B4D2B7839
:10B84000EBB91B4F304639882CF07FFB164A388005
:10B850001378013BDBB213706BB901232B703046B8
:10B86000BDE8F840FFF7BCBF1A78002AE6D0187090
:10B87000104B1878F8BD237801332370EFE7012BC4
:10B8800005D102232B700A4B1888000AE8E7022B27
:10B8900004D103232B70064B1878E1E7FF237E20A9
:10B8A0002370E7E7EA450020E7450020E84500204F
:10B8B000023A0020E94500202DE9F047394E88463C
:10B8C000337817465BB9384A1370384A1370384AD0
:10B8D0001370384A13704FF6FF72374B1A807D2869
:10B8E00050D02DD8182851D01A2852D0314B2E4D77
:10B8F0001A78DFF8BC9080EA020400221A702B78D4
:10B90000CD2B9CBF01332B702B78022B12D9DFF883
:10B91000A8A099F80000BAF800102CF016FB2B78BC
:10B92000AAF80000CD2B9FBF99F80020023B88F8B1
:10B9300000203B701D4B1A781C7089F8002006E02F
:10B940007E28D3D1184B1B781BB91A4A13702020BC
:10B9500011E0FF2B1FD0184A1188154A1078134A9E
:10B96000127802EB0022914217D1022B17D9CE2B6D
:10B9700034BF00207A20A0F120025342534133709B
:10B98000BDE8F08720220B4B1A70E0E7FF22064B40
:10B99000FAE77420EFE77720EDE77620EBE77920F0
:10B9A000E9E700BFEB450020E6450020E445002024
:10B9B000E3450020E5450020003A002008B52CF0C2
:10B9C00076FA4FF6FF73002818BF0346014A13802A
:10B9D00008BD00BF063A002010B5074C208850B1C2
:10B9E0002CF065FA2388C01A044B00B21B889842D9
:10B9F000B4BF0020012010BD063A0020043A002008
:10BA00004FF07E624FF6FF732DE9F041B2F84670B9
:10BA1000B2F84460154D9F4208BF4FF448679E42FC
:10BA200008BF4FF4C8762C88DFF8448050B164001A
:10BA30002C802B88BB4215D92F800023A8F800301A
:10BA4000BDE8F081B8F80030002BF2D02CF02FFACE
:10BA5000B8F80030C4EBC404C01A80B204EB800410
:10BA6000E408E5E7B34238BF2E80E6E7043A002059
:10BA7000063A002008B52CF01AFA4FF07E634FF614
:10BA8000FF72B3F85430934208BF4FF47A73034403
:10BA900013F47F6FC3F3071208BFFF22014B1A7024
:10BAA00008BD00BFEC45002010B5084C237843B119
:10BAB0002CF0FDF92378C3EB10131B065CBF0023A9
:10BAC00023702078B0FA80F0400910BDEC450020CA
:10BAD00007B502F09BFC6A4602F0FEFC18B1452156
